{
	"exchange/Exchange.sol": {
		"Exchange": {
			"abi": [
				{
					"inputs": [
						{
							"internalType": "address",
							"name": "token1",
							"type": "address"
						},
						{
							"internalType": "address",
							"name": "token2",
							"type": "address"
						},
						{
							"internalType": "address",
							"name": "ownerOfToken1",
							"type": "address"
						},
						{
							"internalType": "address",
							"name": "ownerOfToken2",
							"type": "address"
						},
						{
							"internalType": "uint256",
							"name": "amountOfToken1",
							"type": "uint256"
						},
						{
							"internalType": "uint256",
							"name": "amountOfToken2",
							"type": "uint256"
						}
					],
					"name": "swap",
					"outputs": [],
					"stateMutability": "nonpayable",
					"type": "function"
				}
			],
			"devdoc": {
				"kind": "dev",
				"methods": {},
				"version": 1
			},
			"evm": {
				"assembly": "    /* \"exchange/Exchange.sol\":90:1602  contract Exchange {... */\n  mstore(0x40, 0x80)\n  callvalue\n  dup1\n  iszero\n  tag_1\n  jumpi\n  0x00\n  dup1\n  revert\ntag_1:\n  pop\n  dataSize(sub_0)\n  dup1\n  dataOffset(sub_0)\n  0x00\n  codecopy\n  0x00\n  return\nstop\n\nsub_0: assembly {\n        /* \"exchange/Exchange.sol\":90:1602  contract Exchange {... */\n      mstore(0x40, 0x80)\n      callvalue\n      dup1\n      iszero\n      tag_1\n      jumpi\n      0x00\n      dup1\n      revert\n    tag_1:\n      pop\n      jumpi(tag_2, lt(calldatasize, 0x04))\n      shr(0xe0, calldataload(0x00))\n      dup1\n      0xa64e3dd7\n      eq\n      tag_3\n      jumpi\n    tag_2:\n      0x00\n      dup1\n      revert\n        /* \"exchange/Exchange.sol\":1067:1600  function swap... */\n    tag_3:\n      tag_4\n      0x04\n      dup1\n      calldatasize\n      sub\n      dup2\n      add\n      swap1\n      tag_5\n      swap2\n      swap1\n      tag_6\n      jump\t// in\n    tag_5:\n      tag_7\n      jump\t// in\n    tag_4:\n      stop\n    tag_7:\n        /* \"exchange/Exchange.sol\":1304:1310  token1 */\n      dup6\n        /* \"exchange/Exchange.sol\":1320:1326  token2 */\n      dup6\n        /* \"exchange/Exchange.sol\":1336:1349  ownerOfToken1 */\n      dup6\n        /* \"exchange/Exchange.sol\":1359:1372  ownerOfToken2 */\n      dup6\n        /* \"exchange/Exchange.sol\":1382:1396  amountOfToken1 */\n      dup6\n        /* \"exchange/Exchange.sol\":1406:1420  amountOfToken2 */\n      dup6\n        /* \"exchange/Exchange.sol\":428:442  amountOfToken1 */\n      dup2\n        /* \"exchange/Exchange.sol\":377:383  token1 */\n      dup7\n        /* \"exchange/Exchange.sol\":360:394  IBasicERC20Token(token1).allowance */\n      0xffffffffffffffffffffffffffffffffffffffff\n      and\n      0xdd62ed3e\n        /* \"exchange/Exchange.sol\":395:408  ownerOfToken1 */\n      dup7\n        /* \"exchange/Exchange.sol\":418:422  this */\n      address\n        /* \"exchange/Exchange.sol\":360:424  IBasicERC20Token(token1).allowance(ownerOfToken1, address(this)) */\n      mload(0x40)\n      dup4\n      0xffffffff\n      and\n      0xe0\n      shl\n      dup2\n      mstore\n      0x04\n      add\n      tag_9\n      swap3\n      swap2\n      swap1\n      tag_10\n      jump\t// in\n    tag_9:\n      0x20\n      mload(0x40)\n      dup1\n      dup4\n      sub\n      dup2\n      dup7\n      dup1\n      extcodesize\n      iszero\n      dup1\n      iszero\n      tag_11\n      jumpi\n      0x00\n      dup1\n      revert\n    tag_11:\n      pop\n      gas\n      staticcall\n      iszero\n      dup1\n      iszero\n      tag_13\n      jumpi\n      returndatasize\n      0x00\n      dup1\n      returndatacopy\n      revert(0x00, returndatasize)\n    tag_13:\n      pop\n      pop\n      pop\n      pop\n      mload(0x40)\n      returndatasize\n      not(0x1f)\n      0x1f\n      dup3\n      add\n      and\n      dup3\n      add\n      dup1\n      0x40\n      mstore\n      pop\n      dup2\n      add\n      swap1\n      tag_14\n      swap2\n      swap1\n      tag_15\n      jump\t// in\n    tag_14:\n        /* \"exchange/Exchange.sol\":360:442  IBasicERC20Token(token1).allowance(ownerOfToken1, address(this)) >= amountOfToken1 */\n      lt\n      iszero\n        /* \"exchange/Exchange.sol\":330:531  require... */\n      tag_16\n      jumpi\n      mload(0x40)\n      0x08c379a000000000000000000000000000000000000000000000000000000000\n      dup2\n      mstore\n      0x04\n      add\n      tag_17\n      swap1\n      tag_18\n      jump\t// in\n    tag_17:\n      mload(0x40)\n      dup1\n      swap2\n      sub\n      swap1\n      revert\n    tag_16:\n        /* \"exchange/Exchange.sol\":639:653  amountOfToken2 */\n      dup1\n        /* \"exchange/Exchange.sol\":588:594  token2 */\n      dup6\n        /* \"exchange/Exchange.sol\":571:605  IBasicERC20Token(token2).allowance */\n      0xffffffffffffffffffffffffffffffffffffffff\n      and\n      0xdd62ed3e\n        /* \"exchange/Exchange.sol\":606:619  ownerOfToken2 */\n      dup6\n        /* \"exchange/Exchange.sol\":629:633  this */\n      address\n        /* \"exchange/Exchange.sol\":571:635  IBasicERC20Token(token2).allowance(ownerOfToken2, address(this)) */\n      mload(0x40)\n      dup4\n      0xffffffff\n      and\n      0xe0\n      shl\n      dup2\n      mstore\n      0x04\n      add\n      tag_19\n      swap3\n      swap2\n      swap1\n      tag_10\n      jump\t// in\n    tag_19:\n      0x20\n      mload(0x40)\n      dup1\n      dup4\n      sub\n      dup2\n      dup7\n      dup1\n      extcodesize\n      iszero\n      dup1\n      iszero\n      tag_20\n      jumpi\n      0x00\n      dup1\n      revert\n    tag_20:\n      pop\n      gas\n      staticcall\n      iszero\n      dup1\n      iszero\n      tag_22\n      jumpi\n      returndatasize\n      0x00\n      dup1\n      returndatacopy\n      revert(0x00, returndatasize)\n    tag_22:\n      pop\n      pop\n      pop\n      pop\n      mload(0x40)\n      returndatasize\n      not(0x1f)\n      0x1f\n      dup3\n      add\n      and\n      dup3\n      add\n      dup1\n      0x40\n      mstore\n      pop\n      dup2\n      add\n      swap1\n      tag_23\n      swap2\n      swap1\n      tag_15\n      jump\t// in\n    tag_23:\n        /* \"exchange/Exchange.sol\":571:653  IBasicERC20Token(token2).allowance(ownerOfToken2, address(this)) >= amountOfToken2 */\n      lt\n      iszero\n        /* \"exchange/Exchange.sol\":541:742  require... */\n      tag_24\n      jumpi\n      mload(0x40)\n      0x08c379a000000000000000000000000000000000000000000000000000000000\n      dup2\n      mstore\n      0x04\n      add\n      tag_25\n      swap1\n      tag_26\n      jump\t// in\n    tag_25:\n      mload(0x40)\n      dup1\n      swap2\n      sub\n      swap1\n      revert\n    tag_24:\n        /* \"exchange/Exchange.sol\":1441:1512  _safeTransferFrom(token1, ownerOfToken1, ownerOfToken2, amountOfToken1) */\n      tag_28\n        /* \"exchange/Exchange.sol\":1459:1465  token1 */\n      dup13\n        /* \"exchange/Exchange.sol\":1467:1480  ownerOfToken1 */\n      dup12\n        /* \"exchange/Exchange.sol\":1482:1495  ownerOfToken2 */\n      dup12\n        /* \"exchange/Exchange.sol\":1497:1511  amountOfToken1 */\n      dup12\n        /* \"exchange/Exchange.sol\":1441:1458  _safeTransferFrom */\n      tag_29\n        /* \"exchange/Exchange.sol\":1441:1512  _safeTransferFrom(token1, ownerOfToken1, ownerOfToken2, amountOfToken1) */\n      jump\t// in\n    tag_28:\n        /* \"exchange/Exchange.sol\":1522:1593  _safeTransferFrom(token2, ownerOfToken2, ownerOfToken1, amountOfToken2) */\n      tag_30\n        /* \"exchange/Exchange.sol\":1540:1546  token2 */\n      dup12\n        /* \"exchange/Exchange.sol\":1548:1561  ownerOfToken2 */\n      dup11\n        /* \"exchange/Exchange.sol\":1563:1576  ownerOfToken1 */\n      dup13\n        /* \"exchange/Exchange.sol\":1578:1592  amountOfToken2 */\n      dup11\n        /* \"exchange/Exchange.sol\":1522:1539  _safeTransferFrom */\n      tag_29\n        /* \"exchange/Exchange.sol\":1522:1593  _safeTransferFrom(token2, ownerOfToken2, ownerOfToken1, amountOfToken2) */\n      jump\t// in\n    tag_30:\n        /* \"exchange/Exchange.sol\":1067:1600  function swap... */\n      pop\n      pop\n      pop\n      pop\n      pop\n      pop\n      pop\n      pop\n      pop\n      pop\n      pop\n      pop\n      jump\t// out\n        /* \"exchange/Exchange.sol\":766:1061  function _safeTransferFrom... */\n    tag_29:\n        /* \"exchange/Exchange.sol\":924:933  bool sent */\n      0x00\n        /* \"exchange/Exchange.sol\":953:965  tokenAddress */\n      dup5\n        /* \"exchange/Exchange.sol\":936:979  IBasicERC20Token(tokenAddress).transferFrom */\n      0xffffffffffffffffffffffffffffffffffffffff\n      and\n      0x23b872dd\n        /* \"exchange/Exchange.sol\":980:986  sender */\n      dup6\n        /* \"exchange/Exchange.sol\":988:997  recipient */\n      dup6\n        /* \"exchange/Exchange.sol\":999:1005  amount */\n      dup6\n        /* \"exchange/Exchange.sol\":936:1006  IBasicERC20Token(tokenAddress).transferFrom(sender, recipient, amount) */\n      mload(0x40)\n      dup5\n      0xffffffff\n      and\n      0xe0\n      shl\n      dup2\n      mstore\n      0x04\n      add\n      tag_32\n      swap4\n      swap3\n      swap2\n      swap1\n      tag_33\n      jump\t// in\n    tag_32:\n      0x20\n      mload(0x40)\n      dup1\n      dup4\n      sub\n      dup2\n      0x00\n      dup8\n      dup1\n      extcodesize\n      iszero\n      dup1\n      iszero\n      tag_34\n      jumpi\n      0x00\n      dup1\n      revert\n    tag_34:\n      pop\n      gas\n      call\n      iszero\n      dup1\n      iszero\n      tag_36\n      jumpi\n      returndatasize\n      0x00\n      dup1\n      returndatacopy\n      revert(0x00, returndatasize)\n    tag_36:\n      pop\n      pop\n      pop\n      pop\n      mload(0x40)\n      returndatasize\n      not(0x1f)\n      0x1f\n      dup3\n      add\n      and\n      dup3\n      add\n      dup1\n      0x40\n      mstore\n      pop\n      dup2\n      add\n      swap1\n      tag_37\n      swap2\n      swap1\n      tag_38\n      jump\t// in\n    tag_37:\n        /* \"exchange/Exchange.sol\":924:1006  bool sent = IBasicERC20Token(tokenAddress).transferFrom(sender, recipient, amount) */\n      swap1\n      pop\n        /* \"exchange/Exchange.sol\":1024:1028  sent */\n      dup1\n        /* \"exchange/Exchange.sol\":1016:1054  require(sent, \"Token transfer failed\") */\n      tag_39\n      jumpi\n      mload(0x40)\n      0x08c379a000000000000000000000000000000000000000000000000000000000\n      dup2\n      mstore\n      0x04\n      add\n      tag_40\n      swap1\n      tag_41\n      jump\t// in\n    tag_40:\n      mload(0x40)\n      dup1\n      swap2\n      sub\n      swap1\n      revert\n    tag_39:\n        /* \"exchange/Exchange.sol\":914:1061  {... */\n      pop\n        /* \"exchange/Exchange.sol\":766:1061  function _safeTransferFrom... */\n      pop\n      pop\n      pop\n      pop\n      jump\t// out\n        /* \"#utility.yul\":7:146   */\n    tag_43:\n        /* \"#utility.yul\":53:58   */\n      0x00\n        /* \"#utility.yul\":91:97   */\n      dup2\n        /* \"#utility.yul\":78:98   */\n      calldataload\n        /* \"#utility.yul\":69:98   */\n      swap1\n      pop\n        /* \"#utility.yul\":107:140   */\n      tag_45\n        /* \"#utility.yul\":134:139   */\n      dup2\n        /* \"#utility.yul\":107:140   */\n      tag_46\n      jump\t// in\n    tag_45:\n        /* \"#utility.yul\":7:146   */\n      swap3\n      swap2\n      pop\n      pop\n      jump\t// out\n        /* \"#utility.yul\":152:289   */\n    tag_47:\n        /* \"#utility.yul\":206:211   */\n      0x00\n        /* \"#utility.yul\":237:243   */\n      dup2\n        /* \"#utility.yul\":231:244   */\n      mload\n        /* \"#utility.yul\":222:244   */\n      swap1\n      pop\n        /* \"#utility.yul\":253:283   */\n      tag_49\n        /* \"#utility.yul\":277:282   */\n      dup2\n        /* \"#utility.yul\":253:283   */\n      tag_50\n      jump\t// in\n    tag_49:\n        /* \"#utility.yul\":152:289   */\n      swap3\n      swap2\n      pop\n      pop\n      jump\t// out\n        /* \"#utility.yul\":295:434   */\n    tag_51:\n        /* \"#utility.yul\":341:346   */\n      0x00\n        /* \"#utility.yul\":379:385   */\n      dup2\n        /* \"#utility.yul\":366:386   */\n      calldataload\n        /* \"#utility.yul\":357:386   */\n      swap1\n      pop\n        /* \"#utility.yul\":395:428   */\n      tag_53\n        /* \"#utility.yul\":422:427   */\n      dup2\n        /* \"#utility.yul\":395:428   */\n      tag_54\n      jump\t// in\n    tag_53:\n        /* \"#utility.yul\":295:434   */\n      swap3\n      swap2\n      pop\n      pop\n      jump\t// out\n        /* \"#utility.yul\":440:583   */\n    tag_55:\n        /* \"#utility.yul\":497:502   */\n      0x00\n        /* \"#utility.yul\":528:534   */\n      dup2\n        /* \"#utility.yul\":522:535   */\n      mload\n        /* \"#utility.yul\":513:535   */\n      swap1\n      pop\n        /* \"#utility.yul\":544:577   */\n      tag_57\n        /* \"#utility.yul\":571:576   */\n      dup2\n        /* \"#utility.yul\":544:577   */\n      tag_54\n      jump\t// in\n    tag_57:\n        /* \"#utility.yul\":440:583   */\n      swap3\n      swap2\n      pop\n      pop\n      jump\t// out\n        /* \"#utility.yul\":589:1646   */\n    tag_6:\n        /* \"#utility.yul\":693:699   */\n      0x00\n        /* \"#utility.yul\":701:707   */\n      dup1\n        /* \"#utility.yul\":709:715   */\n      0x00\n        /* \"#utility.yul\":717:723   */\n      dup1\n        /* \"#utility.yul\":725:731   */\n      0x00\n        /* \"#utility.yul\":733:739   */\n      dup1\n        /* \"#utility.yul\":782:785   */\n      0xc0\n        /* \"#utility.yul\":770:779   */\n      dup8\n        /* \"#utility.yul\":761:768   */\n      dup10\n        /* \"#utility.yul\":757:780   */\n      sub\n        /* \"#utility.yul\":753:786   */\n      slt\n        /* \"#utility.yul\":750:870   */\n      iszero\n      tag_59\n      jumpi\n        /* \"#utility.yul\":789:868   */\n      tag_60\n      tag_61\n      jump\t// in\n    tag_60:\n        /* \"#utility.yul\":750:870   */\n    tag_59:\n        /* \"#utility.yul\":909:910   */\n      0x00\n        /* \"#utility.yul\":934:987   */\n      tag_62\n        /* \"#utility.yul\":979:986   */\n      dup10\n        /* \"#utility.yul\":970:976   */\n      dup3\n        /* \"#utility.yul\":959:968   */\n      dup11\n        /* \"#utility.yul\":955:977   */\n      add\n        /* \"#utility.yul\":934:987   */\n      tag_43\n      jump\t// in\n    tag_62:\n        /* \"#utility.yul\":924:987   */\n      swap7\n      pop\n        /* \"#utility.yul\":880:997   */\n      pop\n        /* \"#utility.yul\":1036:1038   */\n      0x20\n        /* \"#utility.yul\":1062:1115   */\n      tag_63\n        /* \"#utility.yul\":1107:1114   */\n      dup10\n        /* \"#utility.yul\":1098:1104   */\n      dup3\n        /* \"#utility.yul\":1087:1096   */\n      dup11\n        /* \"#utility.yul\":1083:1105   */\n      add\n        /* \"#utility.yul\":1062:1115   */\n      tag_43\n      jump\t// in\n    tag_63:\n        /* \"#utility.yul\":1052:1115   */\n      swap6\n      pop\n        /* \"#utility.yul\":1007:1125   */\n      pop\n        /* \"#utility.yul\":1164:1166   */\n      0x40\n        /* \"#utility.yul\":1190:1243   */\n      tag_64\n        /* \"#utility.yul\":1235:1242   */\n      dup10\n        /* \"#utility.yul\":1226:1232   */\n      dup3\n        /* \"#utility.yul\":1215:1224   */\n      dup11\n        /* \"#utility.yul\":1211:1233   */\n      add\n        /* \"#utility.yul\":1190:1243   */\n      tag_43\n      jump\t// in\n    tag_64:\n        /* \"#utility.yul\":1180:1243   */\n      swap5\n      pop\n        /* \"#utility.yul\":1135:1253   */\n      pop\n        /* \"#utility.yul\":1292:1294   */\n      0x60\n        /* \"#utility.yul\":1318:1371   */\n      tag_65\n        /* \"#utility.yul\":1363:1370   */\n      dup10\n        /* \"#utility.yul\":1354:1360   */\n      dup3\n        /* \"#utility.yul\":1343:1352   */\n      dup11\n        /* \"#utility.yul\":1339:1361   */\n      add\n        /* \"#utility.yul\":1318:1371   */\n      tag_43\n      jump\t// in\n    tag_65:\n        /* \"#utility.yul\":1308:1371   */\n      swap4\n      pop\n        /* \"#utility.yul\":1263:1381   */\n      pop\n        /* \"#utility.yul\":1420:1423   */\n      0x80\n        /* \"#utility.yul\":1447:1500   */\n      tag_66\n        /* \"#utility.yul\":1492:1499   */\n      dup10\n        /* \"#utility.yul\":1483:1489   */\n      dup3\n        /* \"#utility.yul\":1472:1481   */\n      dup11\n        /* \"#utility.yul\":1468:1490   */\n      add\n        /* \"#utility.yul\":1447:1500   */\n      tag_51\n      jump\t// in\n    tag_66:\n        /* \"#utility.yul\":1437:1500   */\n      swap3\n      pop\n        /* \"#utility.yul\":1391:1510   */\n      pop\n        /* \"#utility.yul\":1549:1552   */\n      0xa0\n        /* \"#utility.yul\":1576:1629   */\n      tag_67\n        /* \"#utility.yul\":1621:1628   */\n      dup10\n        /* \"#utility.yul\":1612:1618   */\n      dup3\n        /* \"#utility.yul\":1601:1610   */\n      dup11\n        /* \"#utility.yul\":1597:1619   */\n      add\n        /* \"#utility.yul\":1576:1629   */\n      tag_51\n      jump\t// in\n    tag_67:\n        /* \"#utility.yul\":1566:1629   */\n      swap2\n      pop\n        /* \"#utility.yul\":1520:1639   */\n      pop\n        /* \"#utility.yul\":589:1646   */\n      swap3\n      swap6\n      pop\n      swap3\n      swap6\n      pop\n      swap3\n      swap6\n      jump\t// out\n        /* \"#utility.yul\":1652:1997   */\n    tag_38:\n        /* \"#utility.yul\":1719:1725   */\n      0x00\n        /* \"#utility.yul\":1768:1770   */\n      0x20\n        /* \"#utility.yul\":1756:1765   */\n      dup3\n        /* \"#utility.yul\":1747:1754   */\n      dup5\n        /* \"#utility.yul\":1743:1766   */\n      sub\n        /* \"#utility.yul\":1739:1771   */\n      slt\n        /* \"#utility.yul\":1736:1855   */\n      iszero\n      tag_69\n      jumpi\n        /* \"#utility.yul\":1774:1853   */\n      tag_70\n      tag_61\n      jump\t// in\n    tag_70:\n        /* \"#utility.yul\":1736:1855   */\n    tag_69:\n        /* \"#utility.yul\":1894:1895   */\n      0x00\n        /* \"#utility.yul\":1919:1980   */\n      tag_71\n        /* \"#utility.yul\":1972:1979   */\n      dup5\n        /* \"#utility.yul\":1963:1969   */\n      dup3\n        /* \"#utility.yul\":1952:1961   */\n      dup6\n        /* \"#utility.yul\":1948:1970   */\n      add\n        /* \"#utility.yul\":1919:1980   */\n      tag_47\n      jump\t// in\n    tag_71:\n        /* \"#utility.yul\":1909:1980   */\n      swap2\n      pop\n        /* \"#utility.yul\":1865:1990   */\n      pop\n        /* \"#utility.yul\":1652:1997   */\n      swap3\n      swap2\n      pop\n      pop\n      jump\t// out\n        /* \"#utility.yul\":2003:2354   */\n    tag_15:\n        /* \"#utility.yul\":2073:2079   */\n      0x00\n        /* \"#utility.yul\":2122:2124   */\n      0x20\n        /* \"#utility.yul\":2110:2119   */\n      dup3\n        /* \"#utility.yul\":2101:2108   */\n      dup5\n        /* \"#utility.yul\":2097:2120   */\n      sub\n        /* \"#utility.yul\":2093:2125   */\n      slt\n        /* \"#utility.yul\":2090:2209   */\n      iszero\n      tag_73\n      jumpi\n        /* \"#utility.yul\":2128:2207   */\n      tag_74\n      tag_61\n      jump\t// in\n    tag_74:\n        /* \"#utility.yul\":2090:2209   */\n    tag_73:\n        /* \"#utility.yul\":2248:2249   */\n      0x00\n        /* \"#utility.yul\":2273:2337   */\n      tag_75\n        /* \"#utility.yul\":2329:2336   */\n      dup5\n        /* \"#utility.yul\":2320:2326   */\n      dup3\n        /* \"#utility.yul\":2309:2318   */\n      dup6\n        /* \"#utility.yul\":2305:2327   */\n      add\n        /* \"#utility.yul\":2273:2337   */\n      tag_55\n      jump\t// in\n    tag_75:\n        /* \"#utility.yul\":2263:2337   */\n      swap2\n      pop\n        /* \"#utility.yul\":2219:2347   */\n      pop\n        /* \"#utility.yul\":2003:2354   */\n      swap3\n      swap2\n      pop\n      pop\n      jump\t// out\n        /* \"#utility.yul\":2360:2478   */\n    tag_76:\n        /* \"#utility.yul\":2447:2471   */\n      tag_78\n        /* \"#utility.yul\":2465:2470   */\n      dup2\n        /* \"#utility.yul\":2447:2471   */\n      tag_79\n      jump\t// in\n    tag_78:\n        /* \"#utility.yul\":2442:2445   */\n      dup3\n        /* \"#utility.yul\":2435:2472   */\n      mstore\n        /* \"#utility.yul\":2360:2478   */\n      pop\n      pop\n      jump\t// out\n        /* \"#utility.yul\":2484:2850   */\n    tag_80:\n        /* \"#utility.yul\":2626:2629   */\n      0x00\n        /* \"#utility.yul\":2647:2714   */\n      tag_82\n        /* \"#utility.yul\":2711:2713   */\n      0x3f\n        /* \"#utility.yul\":2706:2709   */\n      dup4\n        /* \"#utility.yul\":2647:2714   */\n      tag_83\n      jump\t// in\n    tag_82:\n        /* \"#utility.yul\":2640:2714   */\n      swap2\n      pop\n        /* \"#utility.yul\":2723:2816   */\n      tag_84\n        /* \"#utility.yul\":2812:2815   */\n      dup3\n        /* \"#utility.yul\":2723:2816   */\n      tag_85\n      jump\t// in\n    tag_84:\n        /* \"#utility.yul\":2841:2843   */\n      0x40\n        /* \"#utility.yul\":2836:2839   */\n      dup3\n        /* \"#utility.yul\":2832:2844   */\n      add\n        /* \"#utility.yul\":2825:2844   */\n      swap1\n      pop\n        /* \"#utility.yul\":2484:2850   */\n      swap2\n      swap1\n      pop\n      jump\t// out\n        /* \"#utility.yul\":2856:3222   */\n    tag_86:\n        /* \"#utility.yul\":2998:3001   */\n      0x00\n        /* \"#utility.yul\":3019:3086   */\n      tag_88\n        /* \"#utility.yul\":3083:3085   */\n      0x15\n        /* \"#utility.yul\":3078:3081   */\n      dup4\n        /* \"#utility.yul\":3019:3086   */\n      tag_83\n      jump\t// in\n    tag_88:\n        /* \"#utility.yul\":3012:3086   */\n      swap2\n      pop\n        /* \"#utility.yul\":3095:3188   */\n      tag_89\n        /* \"#utility.yul\":3184:3187   */\n      dup3\n        /* \"#utility.yul\":3095:3188   */\n      tag_90\n      jump\t// in\n    tag_89:\n        /* \"#utility.yul\":3213:3215   */\n      0x20\n        /* \"#utility.yul\":3208:3211   */\n      dup3\n        /* \"#utility.yul\":3204:3216   */\n      add\n        /* \"#utility.yul\":3197:3216   */\n      swap1\n      pop\n        /* \"#utility.yul\":2856:3222   */\n      swap2\n      swap1\n      pop\n      jump\t// out\n        /* \"#utility.yul\":3228:3594   */\n    tag_91:\n        /* \"#utility.yul\":3370:3373   */\n      0x00\n        /* \"#utility.yul\":3391:3458   */\n      tag_93\n        /* \"#utility.yul\":3455:3457   */\n      0x3f\n        /* \"#utility.yul\":3450:3453   */\n      dup4\n        /* \"#utility.yul\":3391:3458   */\n      tag_83\n      jump\t// in\n    tag_93:\n        /* \"#utility.yul\":3384:3458   */\n      swap2\n      pop\n        /* \"#utility.yul\":3467:3560   */\n      tag_94\n        /* \"#utility.yul\":3556:3559   */\n      dup3\n        /* \"#utility.yul\":3467:3560   */\n      tag_95\n      jump\t// in\n    tag_94:\n        /* \"#utility.yul\":3585:3587   */\n      0x40\n        /* \"#utility.yul\":3580:3583   */\n      dup3\n        /* \"#utility.yul\":3576:3588   */\n      add\n        /* \"#utility.yul\":3569:3588   */\n      swap1\n      pop\n        /* \"#utility.yul\":3228:3594   */\n      swap2\n      swap1\n      pop\n      jump\t// out\n        /* \"#utility.yul\":3600:3718   */\n    tag_96:\n        /* \"#utility.yul\":3687:3711   */\n      tag_98\n        /* \"#utility.yul\":3705:3710   */\n      dup2\n        /* \"#utility.yul\":3687:3711   */\n      tag_99\n      jump\t// in\n    tag_98:\n        /* \"#utility.yul\":3682:3685   */\n      dup3\n        /* \"#utility.yul\":3675:3712   */\n      mstore\n        /* \"#utility.yul\":3600:3718   */\n      pop\n      pop\n      jump\t// out\n        /* \"#utility.yul\":3724:4056   */\n    tag_10:\n        /* \"#utility.yul\":3845:3849   */\n      0x00\n        /* \"#utility.yul\":3883:3885   */\n      0x40\n        /* \"#utility.yul\":3872:3881   */\n      dup3\n        /* \"#utility.yul\":3868:3886   */\n      add\n        /* \"#utility.yul\":3860:3886   */\n      swap1\n      pop\n        /* \"#utility.yul\":3896:3967   */\n      tag_101\n        /* \"#utility.yul\":3964:3965   */\n      0x00\n        /* \"#utility.yul\":3953:3962   */\n      dup4\n        /* \"#utility.yul\":3949:3966   */\n      add\n        /* \"#utility.yul\":3940:3946   */\n      dup6\n        /* \"#utility.yul\":3896:3967   */\n      tag_76\n      jump\t// in\n    tag_101:\n        /* \"#utility.yul\":3977:4049   */\n      tag_102\n        /* \"#utility.yul\":4045:4047   */\n      0x20\n        /* \"#utility.yul\":4034:4043   */\n      dup4\n        /* \"#utility.yul\":4030:4048   */\n      add\n        /* \"#utility.yul\":4021:4027   */\n      dup5\n        /* \"#utility.yul\":3977:4049   */\n      tag_76\n      jump\t// in\n    tag_102:\n        /* \"#utility.yul\":3724:4056   */\n      swap4\n      swap3\n      pop\n      pop\n      pop\n      jump\t// out\n        /* \"#utility.yul\":4062:4504   */\n    tag_33:\n        /* \"#utility.yul\":4211:4215   */\n      0x00\n        /* \"#utility.yul\":4249:4251   */\n      0x60\n        /* \"#utility.yul\":4238:4247   */\n      dup3\n        /* \"#utility.yul\":4234:4252   */\n      add\n        /* \"#utility.yul\":4226:4252   */\n      swap1\n      pop\n        /* \"#utility.yul\":4262:4333   */\n      tag_104\n        /* \"#utility.yul\":4330:4331   */\n      0x00\n        /* \"#utility.yul\":4319:4328   */\n      dup4\n        /* \"#utility.yul\":4315:4332   */\n      add\n        /* \"#utility.yul\":4306:4312   */\n      dup7\n        /* \"#utility.yul\":4262:4333   */\n      tag_76\n      jump\t// in\n    tag_104:\n        /* \"#utility.yul\":4343:4415   */\n      tag_105\n        /* \"#utility.yul\":4411:4413   */\n      0x20\n        /* \"#utility.yul\":4400:4409   */\n      dup4\n        /* \"#utility.yul\":4396:4414   */\n      add\n        /* \"#utility.yul\":4387:4393   */\n      dup6\n        /* \"#utility.yul\":4343:4415   */\n      tag_76\n      jump\t// in\n    tag_105:\n        /* \"#utility.yul\":4425:4497   */\n      tag_106\n        /* \"#utility.yul\":4493:4495   */\n      0x40\n        /* \"#utility.yul\":4482:4491   */\n      dup4\n        /* \"#utility.yul\":4478:4496   */\n      add\n        /* \"#utility.yul\":4469:4475   */\n      dup5\n        /* \"#utility.yul\":4425:4497   */\n      tag_96\n      jump\t// in\n    tag_106:\n        /* \"#utility.yul\":4062:4504   */\n      swap5\n      swap4\n      pop\n      pop\n      pop\n      pop\n      jump\t// out\n        /* \"#utility.yul\":4510:4929   */\n    tag_26:\n        /* \"#utility.yul\":4676:4680   */\n      0x00\n        /* \"#utility.yul\":4714:4716   */\n      0x20\n        /* \"#utility.yul\":4703:4712   */\n      dup3\n        /* \"#utility.yul\":4699:4717   */\n      add\n        /* \"#utility.yul\":4691:4717   */\n      swap1\n      pop\n        /* \"#utility.yul\":4763:4772   */\n      dup2\n        /* \"#utility.yul\":4757:4761   */\n      dup2\n        /* \"#utility.yul\":4753:4773   */\n      sub\n        /* \"#utility.yul\":4749:4750   */\n      0x00\n        /* \"#utility.yul\":4738:4747   */\n      dup4\n        /* \"#utility.yul\":4734:4751   */\n      add\n        /* \"#utility.yul\":4727:4774   */\n      mstore\n        /* \"#utility.yul\":4791:4922   */\n      tag_108\n        /* \"#utility.yul\":4917:4921   */\n      dup2\n        /* \"#utility.yul\":4791:4922   */\n      tag_80\n      jump\t// in\n    tag_108:\n        /* \"#utility.yul\":4783:4922   */\n      swap1\n      pop\n        /* \"#utility.yul\":4510:4929   */\n      swap2\n      swap1\n      pop\n      jump\t// out\n        /* \"#utility.yul\":4935:5354   */\n    tag_41:\n        /* \"#utility.yul\":5101:5105   */\n      0x00\n        /* \"#utility.yul\":5139:5141   */\n      0x20\n        /* \"#utility.yul\":5128:5137   */\n      dup3\n        /* \"#utility.yul\":5124:5142   */\n      add\n        /* \"#utility.yul\":5116:5142   */\n      swap1\n      pop\n        /* \"#utility.yul\":5188:5197   */\n      dup2\n        /* \"#utility.yul\":5182:5186   */\n      dup2\n        /* \"#utility.yul\":5178:5198   */\n      sub\n        /* \"#utility.yul\":5174:5175   */\n      0x00\n        /* \"#utility.yul\":5163:5172   */\n      dup4\n        /* \"#utility.yul\":5159:5176   */\n      add\n        /* \"#utility.yul\":5152:5199   */\n      mstore\n        /* \"#utility.yul\":5216:5347   */\n      tag_110\n        /* \"#utility.yul\":5342:5346   */\n      dup2\n        /* \"#utility.yul\":5216:5347   */\n      tag_86\n      jump\t// in\n    tag_110:\n        /* \"#utility.yul\":5208:5347   */\n      swap1\n      pop\n        /* \"#utility.yul\":4935:5354   */\n      swap2\n      swap1\n      pop\n      jump\t// out\n        /* \"#utility.yul\":5360:5779   */\n    tag_18:\n        /* \"#utility.yul\":5526:5530   */\n      0x00\n        /* \"#utility.yul\":5564:5566   */\n      0x20\n        /* \"#utility.yul\":5553:5562   */\n      dup3\n        /* \"#utility.yul\":5549:5567   */\n      add\n        /* \"#utility.yul\":5541:5567   */\n      swap1\n      pop\n        /* \"#utility.yul\":5613:5622   */\n      dup2\n        /* \"#utility.yul\":5607:5611   */\n      dup2\n        /* \"#utility.yul\":5603:5623   */\n      sub\n        /* \"#utility.yul\":5599:5600   */\n      0x00\n        /* \"#utility.yul\":5588:5597   */\n      dup4\n        /* \"#utility.yul\":5584:5601   */\n      add\n        /* \"#utility.yul\":5577:5624   */\n      mstore\n        /* \"#utility.yul\":5641:5772   */\n      tag_112\n        /* \"#utility.yul\":5767:5771   */\n      dup2\n        /* \"#utility.yul\":5641:5772   */\n      tag_91\n      jump\t// in\n    tag_112:\n        /* \"#utility.yul\":5633:5772   */\n      swap1\n      pop\n        /* \"#utility.yul\":5360:5779   */\n      swap2\n      swap1\n      pop\n      jump\t// out\n        /* \"#utility.yul\":5866:6035   */\n    tag_83:\n        /* \"#utility.yul\":5950:5961   */\n      0x00\n        /* \"#utility.yul\":5984:5990   */\n      dup3\n        /* \"#utility.yul\":5979:5982   */\n      dup3\n        /* \"#utility.yul\":5972:5991   */\n      mstore\n        /* \"#utility.yul\":6024:6028   */\n      0x20\n        /* \"#utility.yul\":6019:6022   */\n      dup3\n        /* \"#utility.yul\":6015:6029   */\n      add\n        /* \"#utility.yul\":6000:6029   */\n      swap1\n      pop\n        /* \"#utility.yul\":5866:6035   */\n      swap3\n      swap2\n      pop\n      pop\n      jump\t// out\n        /* \"#utility.yul\":6041:6137   */\n    tag_79:\n        /* \"#utility.yul\":6078:6085   */\n      0x00\n        /* \"#utility.yul\":6107:6131   */\n      tag_117\n        /* \"#utility.yul\":6125:6130   */\n      dup3\n        /* \"#utility.yul\":6107:6131   */\n      tag_118\n      jump\t// in\n    tag_117:\n        /* \"#utility.yul\":6096:6131   */\n      swap1\n      pop\n        /* \"#utility.yul\":6041:6137   */\n      swap2\n      swap1\n      pop\n      jump\t// out\n        /* \"#utility.yul\":6143:6233   */\n    tag_119:\n        /* \"#utility.yul\":6177:6184   */\n      0x00\n        /* \"#utility.yul\":6220:6225   */\n      dup2\n        /* \"#utility.yul\":6213:6226   */\n      iszero\n        /* \"#utility.yul\":6206:6227   */\n      iszero\n        /* \"#utility.yul\":6195:6227   */\n      swap1\n      pop\n        /* \"#utility.yul\":6143:6233   */\n      swap2\n      swap1\n      pop\n      jump\t// out\n        /* \"#utility.yul\":6239:6365   */\n    tag_118:\n        /* \"#utility.yul\":6276:6283   */\n      0x00\n        /* \"#utility.yul\":6316:6358   */\n      0xffffffffffffffffffffffffffffffffffffffff\n        /* \"#utility.yul\":6309:6314   */\n      dup3\n        /* \"#utility.yul\":6305:6359   */\n      and\n        /* \"#utility.yul\":6294:6359   */\n      swap1\n      pop\n        /* \"#utility.yul\":6239:6365   */\n      swap2\n      swap1\n      pop\n      jump\t// out\n        /* \"#utility.yul\":6371:6448   */\n    tag_99:\n        /* \"#utility.yul\":6408:6415   */\n      0x00\n        /* \"#utility.yul\":6437:6442   */\n      dup2\n        /* \"#utility.yul\":6426:6442   */\n      swap1\n      pop\n        /* \"#utility.yul\":6371:6448   */\n      swap2\n      swap1\n      pop\n      jump\t// out\n        /* \"#utility.yul\":6577:6694   */\n    tag_61:\n        /* \"#utility.yul\":6686:6687   */\n      0x00\n        /* \"#utility.yul\":6683:6684   */\n      dup1\n        /* \"#utility.yul\":6676:6688   */\n      revert\n        /* \"#utility.yul\":6700:6950   */\n    tag_85:\n        /* \"#utility.yul\":6840:6874   */\n      0x5468697320636f6e7472616374206973206e6f7420617070726f76656420746f\n        /* \"#utility.yul\":6836:6837   */\n      0x00\n        /* \"#utility.yul\":6828:6834   */\n      dup3\n        /* \"#utility.yul\":6824:6838   */\n      add\n        /* \"#utility.yul\":6817:6875   */\n      mstore\n        /* \"#utility.yul\":6909:6942   */\n      0x207370656e64207468697320616d6f756e742066726f6d20746f6b656e203200\n        /* \"#utility.yul\":6904:6906   */\n      0x20\n        /* \"#utility.yul\":6896:6902   */\n      dup3\n        /* \"#utility.yul\":6892:6907   */\n      add\n        /* \"#utility.yul\":6885:6943   */\n      mstore\n        /* \"#utility.yul\":6700:6950   */\n      pop\n      jump\t// out\n        /* \"#utility.yul\":6956:7127   */\n    tag_90:\n        /* \"#utility.yul\":7096:7119   */\n      0x546f6b656e207472616e73666572206661696c65640000000000000000000000\n        /* \"#utility.yul\":7092:7093   */\n      0x00\n        /* \"#utility.yul\":7084:7090   */\n      dup3\n        /* \"#utility.yul\":7080:7094   */\n      add\n        /* \"#utility.yul\":7073:7120   */\n      mstore\n        /* \"#utility.yul\":6956:7127   */\n      pop\n      jump\t// out\n        /* \"#utility.yul\":7133:7383   */\n    tag_95:\n        /* \"#utility.yul\":7273:7307   */\n      0x5468697320636f6e7472616374206973206e6f7420617070726f76656420746f\n        /* \"#utility.yul\":7269:7270   */\n      0x00\n        /* \"#utility.yul\":7261:7267   */\n      dup3\n        /* \"#utility.yul\":7257:7271   */\n      add\n        /* \"#utility.yul\":7250:7308   */\n      mstore\n        /* \"#utility.yul\":7342:7375   */\n      0x207370656e64207468697320616d6f756e742066726f6d20746f6b656e203100\n        /* \"#utility.yul\":7337:7339   */\n      0x20\n        /* \"#utility.yul\":7329:7335   */\n      dup3\n        /* \"#utility.yul\":7325:7340   */\n      add\n        /* \"#utility.yul\":7318:7376   */\n      mstore\n        /* \"#utility.yul\":7133:7383   */\n      pop\n      jump\t// out\n        /* \"#utility.yul\":7389:7511   */\n    tag_46:\n        /* \"#utility.yul\":7462:7486   */\n      tag_130\n        /* \"#utility.yul\":7480:7485   */\n      dup2\n        /* \"#utility.yul\":7462:7486   */\n      tag_79\n      jump\t// in\n    tag_130:\n        /* \"#utility.yul\":7455:7460   */\n      dup2\n        /* \"#utility.yul\":7452:7487   */\n      eq\n        /* \"#utility.yul\":7442:7505   */\n      tag_131\n      jumpi\n        /* \"#utility.yul\":7501:7502   */\n      0x00\n        /* \"#utility.yul\":7498:7499   */\n      dup1\n        /* \"#utility.yul\":7491:7503   */\n      revert\n        /* \"#utility.yul\":7442:7505   */\n    tag_131:\n        /* \"#utility.yul\":7389:7511   */\n      pop\n      jump\t// out\n        /* \"#utility.yul\":7517:7633   */\n    tag_50:\n        /* \"#utility.yul\":7587:7608   */\n      tag_133\n        /* \"#utility.yul\":7602:7607   */\n      dup2\n        /* \"#utility.yul\":7587:7608   */\n      tag_119\n      jump\t// in\n    tag_133:\n        /* \"#utility.yul\":7580:7585   */\n      dup2\n        /* \"#utility.yul\":7577:7609   */\n      eq\n        /* \"#utility.yul\":7567:7627   */\n      tag_134\n      jumpi\n        /* \"#utility.yul\":7623:7624   */\n      0x00\n        /* \"#utility.yul\":7620:7621   */\n      dup1\n        /* \"#utility.yul\":7613:7625   */\n      revert\n        /* \"#utility.yul\":7567:7627   */\n    tag_134:\n        /* \"#utility.yul\":7517:7633   */\n      pop\n      jump\t// out\n        /* \"#utility.yul\":7639:7761   */\n    tag_54:\n        /* \"#utility.yul\":7712:7736   */\n      tag_136\n        /* \"#utility.yul\":7730:7735   */\n      dup2\n        /* \"#utility.yul\":7712:7736   */\n      tag_99\n      jump\t// in\n    tag_136:\n        /* \"#utility.yul\":7705:7710   */\n      dup2\n        /* \"#utility.yul\":7702:7737   */\n      eq\n        /* \"#utility.yul\":7692:7755   */\n      tag_137\n      jumpi\n        /* \"#utility.yul\":7751:7752   */\n      0x00\n        /* \"#utility.yul\":7748:7749   */\n      dup1\n        /* \"#utility.yul\":7741:7753   */\n      revert\n        /* \"#utility.yul\":7692:7755   */\n    tag_137:\n        /* \"#utility.yul\":7639:7761   */\n      pop\n      jump\t// out\n\n    auxdata: 0xa26469706673582212202e97e8d0b6529a73033bf7c7b469396faed5c9e1f9d8132f9032834d4d546ed264736f6c63430008070033\n}\n",
				"bytecode": {
					"linkReferences": {},
					"object": "608060405234801561001057600080fd5b5061070e806100206000396000f3fe608060405234801561001057600080fd5b506004361061002b5760003560e01c8063a64e3dd714610030575b600080fd5b61004a60048036038101906100459190610340565b61004c565b005b858585858585818673ffffffffffffffffffffffffffffffffffffffff1663dd62ed3e86306040518363ffffffff1660e01b815260040161008e9291906104ae565b60206040518083038186803b1580156100a657600080fd5b505afa1580156100ba573d6000803e3d6000fd5b505050506040513d601f19601f820116820180604052508101906100de91906103fa565b101561011f576040517f08c379a00000000000000000000000000000000000000000000000000000000081526004016101169061054e565b60405180910390fd5b808573ffffffffffffffffffffffffffffffffffffffff1663dd62ed3e85306040518363ffffffff1660e01b815260040161015b9291906104ae565b60206040518083038186803b15801561017357600080fd5b505afa158015610187573d6000803e3d6000fd5b505050506040513d601f19601f820116820180604052508101906101ab91906103fa565b10156101ec576040517f08c379a00000000000000000000000000000000000000000000000000000000081526004016101e39061050e565b60405180910390fd5b6101f88c8b8b8b610212565b6102048b8a8c8a610212565b505050505050505050505050565b60008473ffffffffffffffffffffffffffffffffffffffff166323b872dd8585856040518463ffffffff1660e01b8152600401610251939291906104d7565b602060405180830381600087803b15801561026b57600080fd5b505af115801561027f573d6000803e3d6000fd5b505050506040513d601f19601f820116820180604052508101906102a391906103cd565b9050806102e5576040517f08c379a00000000000000000000000000000000000000000000000000000000081526004016102dc9061052e565b60405180910390fd5b5050505050565b6000813590506102fb81610693565b92915050565b600081519050610310816106aa565b92915050565b600081359050610325816106c1565b92915050565b60008151905061033a816106c1565b92915050565b60008060008060008060c0878903121561035d5761035c6105c7565b5b600061036b89828a016102ec565b965050602061037c89828a016102ec565b955050604061038d89828a016102ec565b945050606061039e89828a016102ec565b93505060806103af89828a01610316565b92505060a06103c089828a01610316565b9150509295509295509295565b6000602082840312156103e3576103e26105c7565b5b60006103f184828501610301565b91505092915050565b6000602082840312156104105761040f6105c7565b5b600061041e8482850161032b565b91505092915050565b6104308161057f565b82525050565b6000610443603f8361056e565b915061044e826105cc565b604082019050919050565b600061046660158361056e565b91506104718261061b565b602082019050919050565b6000610489603f8361056e565b915061049482610644565b604082019050919050565b6104a8816105bd565b82525050565b60006040820190506104c36000830185610427565b6104d06020830184610427565b9392505050565b60006060820190506104ec6000830186610427565b6104f96020830185610427565b610506604083018461049f565b949350505050565b6000602082019050818103600083015261052781610436565b9050919050565b6000602082019050818103600083015261054781610459565b9050919050565b600060208201905081810360008301526105678161047c565b9050919050565b600082825260208201905092915050565b600061058a8261059d565b9050919050565b60008115159050919050565b600073ffffffffffffffffffffffffffffffffffffffff82169050919050565b6000819050919050565b600080fd5b7f5468697320636f6e7472616374206973206e6f7420617070726f76656420746f60008201527f207370656e64207468697320616d6f756e742066726f6d20746f6b656e203200602082015250565b7f546f6b656e207472616e73666572206661696c65640000000000000000000000600082015250565b7f5468697320636f6e7472616374206973206e6f7420617070726f76656420746f60008201527f207370656e64207468697320616d6f756e742066726f6d20746f6b656e203100602082015250565b61069c8161057f565b81146106a757600080fd5b50565b6106b381610591565b81146106be57600080fd5b50565b6106ca816105bd565b81146106d557600080fd5b5056fea26469706673582212202e97e8d0b6529a73033bf7c7b469396faed5c9e1f9d8132f9032834d4d546ed264736f6c63430008070033",
					"opcodes": "PUSH1 0x80 PUSH1 0x40 MSTORE CALLVALUE DUP1 ISZERO PUSH2 0x10 JUMPI PUSH1 0x0 DUP1 REVERT JUMPDEST POP PUSH2 0x70E DUP1 PUSH2 0x20 PUSH1 0x0 CODECOPY PUSH1 0x0 RETURN INVALID PUSH1 0x80 PUSH1 0x40 MSTORE CALLVALUE DUP1 ISZERO PUSH2 0x10 JUMPI PUSH1 0x0 DUP1 REVERT JUMPDEST POP PUSH1 0x4 CALLDATASIZE LT PUSH2 0x2B JUMPI PUSH1 0x0 CALLDATALOAD PUSH1 0xE0 SHR DUP1 PUSH4 0xA64E3DD7 EQ PUSH2 0x30 JUMPI JUMPDEST PUSH1 0x0 DUP1 REVERT JUMPDEST PUSH2 0x4A PUSH1 0x4 DUP1 CALLDATASIZE SUB DUP2 ADD SWAP1 PUSH2 0x45 SWAP2 SWAP1 PUSH2 0x340 JUMP JUMPDEST PUSH2 0x4C JUMP JUMPDEST STOP JUMPDEST DUP6 DUP6 DUP6 DUP6 DUP6 DUP6 DUP2 DUP7 PUSH20 0xFFFFFFFFFFFFFFFFFFFFFFFFFFFFFFFFFFFFFFFF AND PUSH4 0xDD62ED3E DUP7 ADDRESS PUSH1 0x40 MLOAD DUP4 PUSH4 0xFFFFFFFF AND PUSH1 0xE0 SHL DUP2 MSTORE PUSH1 0x4 ADD PUSH2 0x8E SWAP3 SWAP2 SWAP1 PUSH2 0x4AE JUMP JUMPDEST PUSH1 0x20 PUSH1 0x40 MLOAD DUP1 DUP4 SUB DUP2 DUP7 DUP1 EXTCODESIZE ISZERO DUP1 ISZERO PUSH2 0xA6 JUMPI PUSH1 0x0 DUP1 REVERT JUMPDEST POP GAS STATICCALL ISZERO DUP1 ISZERO PUSH2 0xBA JUMPI RETURNDATASIZE PUSH1 0x0 DUP1 RETURNDATACOPY RETURNDATASIZE PUSH1 0x0 REVERT JUMPDEST POP POP POP POP PUSH1 0x40 MLOAD RETURNDATASIZE PUSH1 0x1F NOT PUSH1 0x1F DUP3 ADD AND DUP3 ADD DUP1 PUSH1 0x40 MSTORE POP DUP2 ADD SWAP1 PUSH2 0xDE SWAP2 SWAP1 PUSH2 0x3FA JUMP JUMPDEST LT ISZERO PUSH2 0x11F JUMPI PUSH1 0x40 MLOAD PUSH32 0x8C379A000000000000000000000000000000000000000000000000000000000 DUP2 MSTORE PUSH1 0x4 ADD PUSH2 0x116 SWAP1 PUSH2 0x54E JUMP JUMPDEST PUSH1 0x40 MLOAD DUP1 SWAP2 SUB SWAP1 REVERT JUMPDEST DUP1 DUP6 PUSH20 0xFFFFFFFFFFFFFFFFFFFFFFFFFFFFFFFFFFFFFFFF AND PUSH4 0xDD62ED3E DUP6 ADDRESS PUSH1 0x40 MLOAD DUP4 PUSH4 0xFFFFFFFF AND PUSH1 0xE0 SHL DUP2 MSTORE PUSH1 0x4 ADD PUSH2 0x15B SWAP3 SWAP2 SWAP1 PUSH2 0x4AE JUMP JUMPDEST PUSH1 0x20 PUSH1 0x40 MLOAD DUP1 DUP4 SUB DUP2 DUP7 DUP1 EXTCODESIZE ISZERO DUP1 ISZERO PUSH2 0x173 JUMPI PUSH1 0x0 DUP1 REVERT JUMPDEST POP GAS STATICCALL ISZERO DUP1 ISZERO PUSH2 0x187 JUMPI RETURNDATASIZE PUSH1 0x0 DUP1 RETURNDATACOPY RETURNDATASIZE PUSH1 0x0 REVERT JUMPDEST POP POP POP POP PUSH1 0x40 MLOAD RETURNDATASIZE PUSH1 0x1F NOT PUSH1 0x1F DUP3 ADD AND DUP3 ADD DUP1 PUSH1 0x40 MSTORE POP DUP2 ADD SWAP1 PUSH2 0x1AB SWAP2 SWAP1 PUSH2 0x3FA JUMP JUMPDEST LT ISZERO PUSH2 0x1EC JUMPI PUSH1 0x40 MLOAD PUSH32 0x8C379A000000000000000000000000000000000000000000000000000000000 DUP2 MSTORE PUSH1 0x4 ADD PUSH2 0x1E3 SWAP1 PUSH2 0x50E JUMP JUMPDEST PUSH1 0x40 MLOAD DUP1 SWAP2 SUB SWAP1 REVERT JUMPDEST PUSH2 0x1F8 DUP13 DUP12 DUP12 DUP12 PUSH2 0x212 JUMP JUMPDEST PUSH2 0x204 DUP12 DUP11 DUP13 DUP11 PUSH2 0x212 JUMP JUMPDEST POP POP POP POP POP POP POP POP POP POP POP POP JUMP JUMPDEST PUSH1 0x0 DUP5 PUSH20 0xFFFFFFFFFFFFFFFFFFFFFFFFFFFFFFFFFFFFFFFF AND PUSH4 0x23B872DD DUP6 DUP6 DUP6 PUSH1 0x40 MLOAD DUP5 PUSH4 0xFFFFFFFF AND PUSH1 0xE0 SHL DUP2 MSTORE PUSH1 0x4 ADD PUSH2 0x251 SWAP4 SWAP3 SWAP2 SWAP1 PUSH2 0x4D7 JUMP JUMPDEST PUSH1 0x20 PUSH1 0x40 MLOAD DUP1 DUP4 SUB DUP2 PUSH1 0x0 DUP8 DUP1 EXTCODESIZE ISZERO DUP1 ISZERO PUSH2 0x26B JUMPI PUSH1 0x0 DUP1 REVERT JUMPDEST POP GAS CALL ISZERO DUP1 ISZERO PUSH2 0x27F JUMPI RETURNDATASIZE PUSH1 0x0 DUP1 RETURNDATACOPY RETURNDATASIZE PUSH1 0x0 REVERT JUMPDEST POP POP POP POP PUSH1 0x40 MLOAD RETURNDATASIZE PUSH1 0x1F NOT PUSH1 0x1F DUP3 ADD AND DUP3 ADD DUP1 PUSH1 0x40 MSTORE POP DUP2 ADD SWAP1 PUSH2 0x2A3 SWAP2 SWAP1 PUSH2 0x3CD JUMP JUMPDEST SWAP1 POP DUP1 PUSH2 0x2E5 JUMPI PUSH1 0x40 MLOAD PUSH32 0x8C379A000000000000000000000000000000000000000000000000000000000 DUP2 MSTORE PUSH1 0x4 ADD PUSH2 0x2DC SWAP1 PUSH2 0x52E JUMP JUMPDEST PUSH1 0x40 MLOAD DUP1 SWAP2 SUB SWAP1 REVERT JUMPDEST POP POP POP POP POP JUMP JUMPDEST PUSH1 0x0 DUP2 CALLDATALOAD SWAP1 POP PUSH2 0x2FB DUP2 PUSH2 0x693 JUMP JUMPDEST SWAP3 SWAP2 POP POP JUMP JUMPDEST PUSH1 0x0 DUP2 MLOAD SWAP1 POP PUSH2 0x310 DUP2 PUSH2 0x6AA JUMP JUMPDEST SWAP3 SWAP2 POP POP JUMP JUMPDEST PUSH1 0x0 DUP2 CALLDATALOAD SWAP1 POP PUSH2 0x325 DUP2 PUSH2 0x6C1 JUMP JUMPDEST SWAP3 SWAP2 POP POP JUMP JUMPDEST PUSH1 0x0 DUP2 MLOAD SWAP1 POP PUSH2 0x33A DUP2 PUSH2 0x6C1 JUMP JUMPDEST SWAP3 SWAP2 POP POP JUMP JUMPDEST PUSH1 0x0 DUP1 PUSH1 0x0 DUP1 PUSH1 0x0 DUP1 PUSH1 0xC0 DUP8 DUP10 SUB SLT ISZERO PUSH2 0x35D JUMPI PUSH2 0x35C PUSH2 0x5C7 JUMP JUMPDEST JUMPDEST PUSH1 0x0 PUSH2 0x36B DUP10 DUP3 DUP11 ADD PUSH2 0x2EC JUMP JUMPDEST SWAP7 POP POP PUSH1 0x20 PUSH2 0x37C DUP10 DUP3 DUP11 ADD PUSH2 0x2EC JUMP JUMPDEST SWAP6 POP POP PUSH1 0x40 PUSH2 0x38D DUP10 DUP3 DUP11 ADD PUSH2 0x2EC JUMP JUMPDEST SWAP5 POP POP PUSH1 0x60 PUSH2 0x39E DUP10 DUP3 DUP11 ADD PUSH2 0x2EC JUMP JUMPDEST SWAP4 POP POP PUSH1 0x80 PUSH2 0x3AF DUP10 DUP3 DUP11 ADD PUSH2 0x316 JUMP JUMPDEST SWAP3 POP POP PUSH1 0xA0 PUSH2 0x3C0 DUP10 DUP3 DUP11 ADD PUSH2 0x316 JUMP JUMPDEST SWAP2 POP POP SWAP3 SWAP6 POP SWAP3 SWAP6 POP SWAP3 SWAP6 JUMP JUMPDEST PUSH1 0x0 PUSH1 0x20 DUP3 DUP5 SUB SLT ISZERO PUSH2 0x3E3 JUMPI PUSH2 0x3E2 PUSH2 0x5C7 JUMP JUMPDEST JUMPDEST PUSH1 0x0 PUSH2 0x3F1 DUP5 DUP3 DUP6 ADD PUSH2 0x301 JUMP JUMPDEST SWAP2 POP POP SWAP3 SWAP2 POP POP JUMP JUMPDEST PUSH1 0x0 PUSH1 0x20 DUP3 DUP5 SUB SLT ISZERO PUSH2 0x410 JUMPI PUSH2 0x40F PUSH2 0x5C7 JUMP JUMPDEST JUMPDEST PUSH1 0x0 PUSH2 0x41E DUP5 DUP3 DUP6 ADD PUSH2 0x32B JUMP JUMPDEST SWAP2 POP POP SWAP3 SWAP2 POP POP JUMP JUMPDEST PUSH2 0x430 DUP2 PUSH2 0x57F JUMP JUMPDEST DUP3 MSTORE POP POP JUMP JUMPDEST PUSH1 0x0 PUSH2 0x443 PUSH1 0x3F DUP4 PUSH2 0x56E JUMP JUMPDEST SWAP2 POP PUSH2 0x44E DUP3 PUSH2 0x5CC JUMP JUMPDEST PUSH1 0x40 DUP3 ADD SWAP1 POP SWAP2 SWAP1 POP JUMP JUMPDEST PUSH1 0x0 PUSH2 0x466 PUSH1 0x15 DUP4 PUSH2 0x56E JUMP JUMPDEST SWAP2 POP PUSH2 0x471 DUP3 PUSH2 0x61B JUMP JUMPDEST PUSH1 0x20 DUP3 ADD SWAP1 POP SWAP2 SWAP1 POP JUMP JUMPDEST PUSH1 0x0 PUSH2 0x489 PUSH1 0x3F DUP4 PUSH2 0x56E JUMP JUMPDEST SWAP2 POP PUSH2 0x494 DUP3 PUSH2 0x644 JUMP JUMPDEST PUSH1 0x40 DUP3 ADD SWAP1 POP SWAP2 SWAP1 POP JUMP JUMPDEST PUSH2 0x4A8 DUP2 PUSH2 0x5BD JUMP JUMPDEST DUP3 MSTORE POP POP JUMP JUMPDEST PUSH1 0x0 PUSH1 0x40 DUP3 ADD SWAP1 POP PUSH2 0x4C3 PUSH1 0x0 DUP4 ADD DUP6 PUSH2 0x427 JUMP JUMPDEST PUSH2 0x4D0 PUSH1 0x20 DUP4 ADD DUP5 PUSH2 0x427 JUMP JUMPDEST SWAP4 SWAP3 POP POP POP JUMP JUMPDEST PUSH1 0x0 PUSH1 0x60 DUP3 ADD SWAP1 POP PUSH2 0x4EC PUSH1 0x0 DUP4 ADD DUP7 PUSH2 0x427 JUMP JUMPDEST PUSH2 0x4F9 PUSH1 0x20 DUP4 ADD DUP6 PUSH2 0x427 JUMP JUMPDEST PUSH2 0x506 PUSH1 0x40 DUP4 ADD DUP5 PUSH2 0x49F JUMP JUMPDEST SWAP5 SWAP4 POP POP POP POP JUMP JUMPDEST PUSH1 0x0 PUSH1 0x20 DUP3 ADD SWAP1 POP DUP2 DUP2 SUB PUSH1 0x0 DUP4 ADD MSTORE PUSH2 0x527 DUP2 PUSH2 0x436 JUMP JUMPDEST SWAP1 POP SWAP2 SWAP1 POP JUMP JUMPDEST PUSH1 0x0 PUSH1 0x20 DUP3 ADD SWAP1 POP DUP2 DUP2 SUB PUSH1 0x0 DUP4 ADD MSTORE PUSH2 0x547 DUP2 PUSH2 0x459 JUMP JUMPDEST SWAP1 POP SWAP2 SWAP1 POP JUMP JUMPDEST PUSH1 0x0 PUSH1 0x20 DUP3 ADD SWAP1 POP DUP2 DUP2 SUB PUSH1 0x0 DUP4 ADD MSTORE PUSH2 0x567 DUP2 PUSH2 0x47C JUMP JUMPDEST SWAP1 POP SWAP2 SWAP1 POP JUMP JUMPDEST PUSH1 0x0 DUP3 DUP3 MSTORE PUSH1 0x20 DUP3 ADD SWAP1 POP SWAP3 SWAP2 POP POP JUMP JUMPDEST PUSH1 0x0 PUSH2 0x58A DUP3 PUSH2 0x59D JUMP JUMPDEST SWAP1 POP SWAP2 SWAP1 POP JUMP JUMPDEST PUSH1 0x0 DUP2 ISZERO ISZERO SWAP1 POP SWAP2 SWAP1 POP JUMP JUMPDEST PUSH1 0x0 PUSH20 0xFFFFFFFFFFFFFFFFFFFFFFFFFFFFFFFFFFFFFFFF DUP3 AND SWAP1 POP SWAP2 SWAP1 POP JUMP JUMPDEST PUSH1 0x0 DUP2 SWAP1 POP SWAP2 SWAP1 POP JUMP JUMPDEST PUSH1 0x0 DUP1 REVERT JUMPDEST PUSH32 0x5468697320636F6E7472616374206973206E6F7420617070726F76656420746F PUSH1 0x0 DUP3 ADD MSTORE PUSH32 0x207370656E64207468697320616D6F756E742066726F6D20746F6B656E203200 PUSH1 0x20 DUP3 ADD MSTORE POP JUMP JUMPDEST PUSH32 0x546F6B656E207472616E73666572206661696C65640000000000000000000000 PUSH1 0x0 DUP3 ADD MSTORE POP JUMP JUMPDEST PUSH32 0x5468697320636F6E7472616374206973206E6F7420617070726F76656420746F PUSH1 0x0 DUP3 ADD MSTORE PUSH32 0x207370656E64207468697320616D6F756E742066726F6D20746F6B656E203100 PUSH1 0x20 DUP3 ADD MSTORE POP JUMP JUMPDEST PUSH2 0x69C DUP2 PUSH2 0x57F JUMP JUMPDEST DUP2 EQ PUSH2 0x6A7 JUMPI PUSH1 0x0 DUP1 REVERT JUMPDEST POP JUMP JUMPDEST PUSH2 0x6B3 DUP2 PUSH2 0x591 JUMP JUMPDEST DUP2 EQ PUSH2 0x6BE JUMPI PUSH1 0x0 DUP1 REVERT JUMPDEST POP JUMP JUMPDEST PUSH2 0x6CA DUP2 PUSH2 0x5BD JUMP JUMPDEST DUP2 EQ PUSH2 0x6D5 JUMPI PUSH1 0x0 DUP1 REVERT JUMPDEST POP JUMP INVALID LOG2 PUSH5 0x6970667358 0x22 SLT KECCAK256 0x2E SWAP8 0xE8 0xD0 0xB6 MSTORE SWAP11 PUSH20 0x33BF7C7B469396FAED5C9E1F9D8132F9032834D 0x4D SLOAD PUSH15 0xD264736F6C63430008070033000000 "
				},
				"gasEstimates": {
					"creation": {
						"codeDepositCost": "361200",
						"executionCost": "399",
						"totalCost": "361599"
					},
					"external": {
						"swap(address,address,address,address,uint256,uint256)": "infinite"
					},
					"internal": {
						"_safeTransferFrom(address,address,address,uint256)": "infinite"
					}
				},
				"methodIdentifiers": {
					"swap(address,address,address,address,uint256,uint256)": "a64e3dd7"
				}
			},
			"storageLayout": {
				"storage": [],
				"types": null
			},
			"userdoc": {
				"kind": "user",
				"methods": {},
				"version": 1
			}
		}
	}
}